{
  "_format": "hh-sol-artifact-1",
  "contractName": "SimpleCounter",
  "sourceName": "contracts/SimpleCounter.sol",
  "abi": [
    {
      "inputs": [
        {
          "internalType": "address",
          "name": "_verifier",
          "type": "address"
        }
      ],
      "stateMutability": "nonpayable",
      "type": "constructor"
    },
    {
      "inputs": [],
      "name": "counter",
      "outputs": [
        {
          "internalType": "uint256",
          "name": "",
          "type": "uint256"
        }
      ],
      "stateMutability": "view",
      "type": "function"
    },
    {
      "inputs": [
        {
          "internalType": "bytes",
          "name": "_proof",
          "type": "bytes"
        },
        {
          "internalType": "bytes32[]",
          "name": "_publicInputs",
          "type": "bytes32[]"
        }
      ],
      "name": "updateCounterIfVerified",
      "outputs": [],
      "stateMutability": "nonpayable",
      "type": "function"
    },
    {
      "inputs": [],
      "name": "verifier",
      "outputs": [
        {
          "internalType": "contract IVerifier",
          "name": "",
          "type": "address"
        }
      ],
      "stateMutability": "view",
      "type": "function"
    }
  ],
  "bytecode": "0x6080604052348015600f57600080fd5b5060405161038b38038061038b833981016040819052602c916050565b600080546001600160a01b0319166001600160a01b0392909216919091179055607e565b600060208284031215606157600080fd5b81516001600160a01b0381168114607757600080fd5b9392505050565b6102fe8061008d6000396000f3fe608060405234801561001057600080fd5b50600436106100415760003560e01c806322408f7b146100465780632b7ac3f31461005b57806361bc221a1461008b575b600080fd5b610059610054366004610141565b6100a2565b005b60005461006e906001600160a01b031681565b6040516001600160a01b0390911681526020015b60405180910390f35b61009460015481565b604051908152602001610082565b60008054604051633a94343960e21b81526001600160a01b039091169063ea50d0e4906100d9908890889088908890600401610214565b602060405180830381865afa1580156100f6573d6000803e3d6000fd5b505050506040513d601f19601f8201168201806040525081019061011a9190610278565b9050801561013a57600180600082825461013491906102a1565b90915550505b5050505050565b6000806000806040858703121561015757600080fd5b843567ffffffffffffffff81111561016e57600080fd5b8501601f8101871361017f57600080fd5b803567ffffffffffffffff81111561019657600080fd5b8760208284010111156101a857600080fd5b60209182019550935085013567ffffffffffffffff8111156101c957600080fd5b8501601f810187136101da57600080fd5b803567ffffffffffffffff8111156101f157600080fd5b8760208260051b840101111561020657600080fd5b949793965060200194505050565b6040815283604082015283856060830137600060608583018101829052601f19601f8701168301838103820160208501529081018490526001600160fb1b0384111561025f57600080fd5b8360051b80866080840137016080019695505050505050565b60006020828403121561028a57600080fd5b8151801515811461029a57600080fd5b9392505050565b808201808211156102c257634e487b7160e01b600052601160045260246000fd5b9291505056fea264697066735822122076e7ed8842fe2a786de746dc3fcb6ab55d3c33329edb832f381350b7a67da0b764736f6c634300081c0033",
  "linkReferences": {},
  "deployedLinkReferences": {}
}